{
  "_format": "hh-sol-artifact-1",
  "contractName": "WavePortal",
  "sourceName": "contracts/WavePortal.sol",
  "abi": [
    {
      "inputs": [],
      "stateMutability": "payable",
      "type": "constructor"
    },
    {
      "anonymous": false,
      "inputs": [
        {
          "indexed": true,
          "internalType": "address",
          "name": "from",
          "type": "address"
        },
        {
          "indexed": false,
          "internalType": "uint256",
          "name": "timestamp",
          "type": "uint256"
        },
        {
          "indexed": false,
          "internalType": "string",
          "name": "message",
          "type": "string"
        }
      ],
      "name": "NewWave",
      "type": "event"
    },
    {
      "inputs": [],
      "name": "getAllWaveMsgs",
      "outputs": [
        {
          "components": [
            {
              "internalType": "address",
              "name": "waver",
              "type": "address"
            },
            {
              "internalType": "string",
              "name": "message",
              "type": "string"
            },
            {
              "internalType": "uint256",
              "name": "timestamp",
              "type": "uint256"
            }
          ],
          "internalType": "struct WavePortal.Wave[]",
          "name": "",
          "type": "tuple[]"
        }
      ],
      "stateMutability": "view",
      "type": "function"
    },
    {
      "inputs": [],
      "name": "getTotalWaves",
      "outputs": [
        {
          "internalType": "uint256",
          "name": "",
          "type": "uint256"
        }
      ],
      "stateMutability": "view",
      "type": "function"
    },
    {
      "inputs": [
        {
          "internalType": "address",
          "name": "",
          "type": "address"
        }
      ],
      "name": "lastWavedAt",
      "outputs": [
        {
          "internalType": "uint256",
          "name": "",
          "type": "uint256"
        }
      ],
      "stateMutability": "view",
      "type": "function"
    },
    {
      "inputs": [],
      "name": "totalWaves",
      "outputs": [
        {
          "internalType": "uint256",
          "name": "",
          "type": "uint256"
        }
      ],
      "stateMutability": "view",
      "type": "function"
    },
    {
      "inputs": [
        {
          "internalType": "string",
          "name": "_message",
          "type": "string"
        }
      ],
      "name": "wave",
      "outputs": [],
      "stateMutability": "nonpayable",
      "type": "function"
    }
  ],
  "bytecode": "0x6080604052606444426200001491906200002c565b62000020919062000093565b60018190555062000129565b6000620000398262000089565b9150620000468362000089565b9250827fffffffffffffffffffffffffffffffffffffffffffffffffffffffffffffffff038211156200007e576200007d620000cb565b5b828201905092915050565b6000819050919050565b6000620000a08262000089565b9150620000ad8362000089565b925082620000c057620000bf620000fa565b5b828206905092915050565b7f4e487b7100000000000000000000000000000000000000000000000000000000600052601160045260246000fd5b7f4e487b7100000000000000000000000000000000000000000000000000000000600052601260045260246000fd5b610f3180620001396000396000f3fe608060405234801561001057600080fd5b50600436106100575760003560e01c8063291bcab31461005c578063449d46c01461007a5780638567b504146100965780639a2cdc08146100b4578063a42a4663146100d2575b600080fd5b610064610102565b6040516100719190610a61565b60405180910390f35b610094600480360381019061008f9190610742565b610108565b005b61009e610487565b6040516100ab91906109bf565b60405180910390f35b6100bc6105d8565b6040516100c99190610a61565b60405180910390f35b6100ec60048036038101906100e79190610719565b6105e1565b6040516100f99190610a61565b60405180910390f35b60005481565b42601e600360003373ffffffffffffffffffffffffffffffffffffffff1673ffffffffffffffffffffffffffffffffffffffff168152602001908152602001600020546101559190610b73565b10610195576040517f08c379a000000000000000000000000000000000000000000000000000000000815260040161018c90610a41565b60405180910390fd5b42600360003373ffffffffffffffffffffffffffffffffffffffff1673ffffffffffffffffffffffffffffffffffffffff168152602001908152602001600020819055506000808154809291906101eb90610caa565b9190505550600260405180606001604052803373ffffffffffffffffffffffffffffffffffffffff16815260200183815260200142815250908060018154018082558091505060019003906000526020600020906003020160009091909190915060008201518160000160006101000a81548173ffffffffffffffffffffffffffffffffffffffff021916908373ffffffffffffffffffffffffffffffffffffffff16021790555060208201518160010190805190602001906102af9291906105f9565b50604082015181600201555050606460015442446102cd9190610b73565b6102d79190610b73565b6102e19190610cf3565b600181905550601e600154116104345760006509184e72a0009050601e6001541115610342576040517f08c379a000000000000000000000000000000000000000000000000000000000815260040161033990610a21565b60405180910390fd5b47811115610385576040517f08c379a000000000000000000000000000000000000000000000000000000000815260040161037c906109e1565b60405180910390fd5b60003373ffffffffffffffffffffffffffffffffffffffff16826040516103ab906109aa565b60006040518083038185875af1925050503d80600081146103e8576040519150601f19603f3d011682016040523d82523d6000602084013e6103ed565b606091505b5050905080610431576040517f08c379a000000000000000000000000000000000000000000000000000000000815260040161042890610a01565b60405180910390fd5b50505b3373ffffffffffffffffffffffffffffffffffffffff167f5f7e16dc676677766a70e9c5628aa6c54ddb8b6e5188e2ae1e1f17f1ffbea716428360405161047c929190610a7c565b60405180910390a250565b60606002805480602002602001604051908101604052809291908181526020016000905b828210156105cf57838290600052602060002090600302016040518060600160405290816000820160009054906101000a900473ffffffffffffffffffffffffffffffffffffffff1673ffffffffffffffffffffffffffffffffffffffff1673ffffffffffffffffffffffffffffffffffffffff16815260200160018201805461053490610c47565b80601f016020809104026020016040519081016040528092919081815260200182805461056090610c47565b80156105ad5780601f10610582576101008083540402835291602001916105ad565b820191906000526020600020905b81548152906001019060200180831161059057829003601f168201915b50505050508152602001600282015481525050815260200190600101906104ab565b50505050905090565b60008054905090565b60036020528060005260406000206000915090505481565b82805461060590610c47565b90600052602060002090601f016020900481019282610627576000855561066e565b82601f1061064057805160ff191683800117855561066e565b8280016001018555821561066e579182015b8281111561066d578251825591602001919060010190610652565b5b50905061067b919061067f565b5090565b5b80821115610698576000816000905550600101610680565b5090565b60006106af6106aa84610ad1565b610aac565b9050828152602081018484840111156106c757600080fd5b6106d2848285610c05565b509392505050565b6000813590506106e981610ee4565b92915050565b600082601f83011261070057600080fd5b813561071084826020860161069c565b91505092915050565b60006020828403121561072b57600080fd5b6000610739848285016106da565b91505092915050565b60006020828403121561075457600080fd5b600082013567ffffffffffffffff81111561076e57600080fd5b61077a848285016106ef565b91505092915050565b600061078f838361093c565b905092915050565b6107a081610bc9565b82525050565b60006107b182610b12565b6107bb8185610b35565b9350836020820285016107cd85610b02565b8060005b8581101561080957848403895281516107ea8582610783565b94506107f583610b28565b925060208a019950506001810190506107d1565b50829750879550505050505092915050565b600061082682610b1d565b6108308185610b51565b9350610840818560208601610c14565b61084981610de0565b840191505092915050565b600061085f82610b1d565b6108698185610b62565b9350610879818560208601610c14565b61088281610de0565b840191505092915050565b600061089a603483610b62565b91506108a582610df1565b604082019050919050565b60006108bd602783610b62565b91506108c882610e40565b604082019050919050565b60006108e0601183610b62565b91506108eb82610e8f565b602082019050919050565b6000610903600083610b46565b915061090e82610eb8565b600082019050919050565b6000610926601883610b62565b915061093182610ebb565b602082019050919050565b60006060830160008301516109546000860182610797565b506020830151848203602086015261096c828261081b565b9150506040830151610981604086018261098c565b508091505092915050565b61099581610bfb565b82525050565b6109a481610bfb565b82525050565b60006109b5826108f6565b9150819050919050565b600060208201905081810360008301526109d981846107a6565b905092915050565b600060208201905081810360008301526109fa8161088d565b9050919050565b60006020820190508181036000830152610a1a816108b0565b9050919050565b60006020820190508181036000830152610a3a816108d3565b9050919050565b60006020820190508181036000830152610a5a81610919565b9050919050565b6000602082019050610a76600083018461099b565b92915050565b6000604082019050610a91600083018561099b565b8181036020830152610aa38184610854565b90509392505050565b6000610ab6610ac7565b9050610ac28282610c79565b919050565b6000604051905090565b600067ffffffffffffffff821115610aec57610aeb610db1565b5b610af582610de0565b9050602081019050919050565b6000819050602082019050919050565b600081519050919050565b600081519050919050565b6000602082019050919050565b600082825260208201905092915050565b600081905092915050565b600082825260208201905092915050565b600082825260208201905092915050565b6000610b7e82610bfb565b9150610b8983610bfb565b9250827fffffffffffffffffffffffffffffffffffffffffffffffffffffffffffffffff03821115610bbe57610bbd610d24565b5b828201905092915050565b6000610bd482610bdb565b9050919050565b600073ffffffffffffffffffffffffffffffffffffffff82169050919050565b6000819050919050565b82818337600083830152505050565b60005b83811015610c32578082015181840152602081019050610c17565b83811115610c41576000848401525b50505050565b60006002820490506001821680610c5f57607f821691505b60208210811415610c7357610c72610d82565b5b50919050565b610c8282610de0565b810181811067ffffffffffffffff82111715610ca157610ca0610db1565b5b80604052505050565b6000610cb582610bfb565b91507fffffffffffffffffffffffffffffffffffffffffffffffffffffffffffffffff821415610ce857610ce7610d24565b5b600182019050919050565b6000610cfe82610bfb565b9150610d0983610bfb565b925082610d1957610d18610d53565b5b828206905092915050565b7f4e487b7100000000000000000000000000000000000000000000000000000000600052601160045260246000fd5b7f4e487b7100000000000000000000000000000000000000000000000000000000600052601260045260246000fd5b7f4e487b7100000000000000000000000000000000000000000000000000000000600052602260045260246000fd5b7f4e487b7100000000000000000000000000000000000000000000000000000000600052604160045260246000fd5b6000601f19601f8301169050919050565b7f547279696e6720746f207769746864726177206d6f7265206d6f6e657920746860008201527f616e2074686520636f6e7472616374206861732e000000000000000000000000602082015250565b7f4661696c656420746f207769746864726177206d6f6e65792066726f6d20636f60008201527f6e74726163742e00000000000000000000000000000000000000000000000000602082015250565b7f596f7520776f6e20736f6d652045544821000000000000000000000000000000600082015250565b50565b7f506c656173652077616974206174206c65617374203330730000000000000000600082015250565b610eed81610bc9565b8114610ef857600080fd5b5056fea2646970667358221220df7fce5fbc301213202cbe10bc2861ad5dcd2a74215ec648979434d3d8fdac3664736f6c63430008040033",
  "linkReferences": {},
  "deployedLinkReferences": {}
}