{
  "_format": "hh-sol-artifact-1",
  "contractName": "WavePortal",
  "sourceName": "contracts/WavePortal.sol",
  "abi": [
    {
      "inputs": [],
      "stateMutability": "payable",
      "type": "constructor"
    },
    {
      "anonymous": false,
      "inputs": [
        {
          "indexed": true,
          "internalType": "address",
          "name": "from",
          "type": "address"
        },
        {
          "indexed": false,
          "internalType": "uint256",
          "name": "timestamp",
          "type": "uint256"
        },
        {
          "indexed": false,
          "internalType": "string",
          "name": "message",
          "type": "string"
        }
      ],
      "name": "NewWave",
      "type": "event"
    },
    {
      "inputs": [],
      "name": "getAllWaveMsgs",
      "outputs": [
        {
          "components": [
            {
              "internalType": "address",
              "name": "waver",
              "type": "address"
            },
            {
              "internalType": "string",
              "name": "message",
              "type": "string"
            },
            {
              "internalType": "uint256",
              "name": "timestamp",
              "type": "uint256"
            }
          ],
          "internalType": "struct WavePortal.Wave[]",
          "name": "",
          "type": "tuple[]"
        }
      ],
      "stateMutability": "view",
      "type": "function"
    },
    {
      "inputs": [],
      "name": "getTotalWaves",
      "outputs": [
        {
          "internalType": "uint256",
          "name": "",
          "type": "uint256"
        }
      ],
      "stateMutability": "view",
      "type": "function"
    },
    {
      "inputs": [
        {
          "internalType": "address",
          "name": "",
          "type": "address"
        }
      ],
      "name": "lastWavedAt",
      "outputs": [
        {
          "internalType": "uint256",
          "name": "",
          "type": "uint256"
        }
      ],
      "stateMutability": "view",
      "type": "function"
    },
    {
      "inputs": [],
      "name": "totalWaves",
      "outputs": [
        {
          "internalType": "uint256",
          "name": "",
          "type": "uint256"
        }
      ],
      "stateMutability": "view",
      "type": "function"
    },
    {
      "inputs": [
        {
          "internalType": "string",
          "name": "_message",
          "type": "string"
        }
      ],
      "name": "wave",
      "outputs": [],
      "stateMutability": "nonpayable",
      "type": "function"
    }
  ],
  "bytecode": "0x60806040526200004f6040518060400160405280601b81526020017f676d204275696c6473706163652e2e20436f6e747275637465642100000000008152506200007760201b620006761760201c565b606444426200005f9190620001c4565b6200006b919062000261565b60018190555062000308565b62000117816040516024016200008e919062000184565b6040516020818303038152906040527f41304fac000000000000000000000000000000000000000000000000000000007bffffffffffffffffffffffffffffffffffffffffffffffffffffffff19166020820180517bffffffffffffffffffffffffffffffffffffffffffffffffffffffff83818316178352505050506200011a60201b60201c565b50565b60008151905060006a636f6e736f6c652e6c6f679050602083016000808483855afa5050505050565b60006200015082620001a8565b6200015c8185620001b3565b93506200016e8185602086016200022b565b6200017981620002f7565b840191505092915050565b60006020820190508181036000830152620001a0818462000143565b905092915050565b600081519050919050565b600082825260208201905092915050565b6000620001d18262000221565b9150620001de8362000221565b9250827fffffffffffffffffffffffffffffffffffffffffffffffffffffffffffffffff0382111562000216576200021562000299565b5b828201905092915050565b6000819050919050565b60005b838110156200024b5780820151818401526020810190506200022e565b838111156200025b576000848401525b50505050565b60006200026e8262000221565b91506200027b8362000221565b9250826200028e576200028d620002c8565b5b828206905092915050565b7f4e487b7100000000000000000000000000000000000000000000000000000000600052601160045260246000fd5b7f4e487b7100000000000000000000000000000000000000000000000000000000600052601260045260246000fd5b6000601f19601f8301169050919050565b6111cd80620003186000396000f3fe608060405234801561001057600080fd5b50600436106100575760003560e01c8063291bcab31461005c578063449d46c01461007a5780638567b504146100965780639a2cdc08146100b4578063a42a4663146100d2575b600080fd5b610064610102565b6040516100719190610d26565b60405180910390f35b610094600480360381019061008f91906109b9565b610108565b005b61009e6104c2565b6040516100ab9190610c22565b60405180910390f35b6100bc610613565b6040516100c99190610d26565b60405180910390f35b6100ec60048036038101906100e79190610990565b61065e565b6040516100f99190610d26565b60405180910390f35b60005481565b42610384600360003373ffffffffffffffffffffffffffffffffffffffff1673ffffffffffffffffffffffffffffffffffffffff168152602001908152602001600020546101569190610e38565b10610196576040517f08c379a000000000000000000000000000000000000000000000000000000000815260040161018d90610d06565b60405180910390fd5b42600360003373ffffffffffffffffffffffffffffffffffffffff1673ffffffffffffffffffffffffffffffffffffffff168152602001908152602001600020819055506000808154809291906101ec90610f6f565b9190505550600260405180606001604052803373ffffffffffffffffffffffffffffffffffffffff16815260200183815260200142815250908060018154018082558091505060019003906000526020600020906003020160009091909190915060008201518160000160006101000a81548173ffffffffffffffffffffffffffffffffffffffff021916908373ffffffffffffffffffffffffffffffffffffffff16021790555060208201518160010190805190602001906102b0929190610870565b50604082015181600201555050606460015442446102ce9190610e38565b6102d89190610e38565b6102e29190610fb8565b6001819055506103296040518060400160405280600781526020017f257320736565640000000000000000000000000000000000000000000000000081525060015461070f565b60326001541161046f576103726040518060400160405280600781526020017f257320776f6e2100000000000000000000000000000000000000000000000000815250336107ab565b60006509184e72a0009050478111156103c0576040517f08c379a00000000000000000000000000000000000000000000000000000000081526004016103b790610cc6565b60405180910390fd5b60003373ffffffffffffffffffffffffffffffffffffffff16826040516103e690610c0d565b60006040518083038185875af1925050503d8060008114610423576040519150601f19603f3d011682016040523d82523d6000602084013e610428565b606091505b505090508061046c576040517f08c379a000000000000000000000000000000000000000000000000000000000815260040161046390610ce6565b60405180910390fd5b50505b3373ffffffffffffffffffffffffffffffffffffffff167f5f7e16dc676677766a70e9c5628aa6c54ddb8b6e5188e2ae1e1f17f1ffbea71642836040516104b7929190610d41565b60405180910390a250565b60606002805480602002602001604051908101604052809291908181526020016000905b8282101561060a57838290600052602060002090600302016040518060600160405290816000820160009054906101000a900473ffffffffffffffffffffffffffffffffffffffff1673ffffffffffffffffffffffffffffffffffffffff1673ffffffffffffffffffffffffffffffffffffffff16815260200160018201805461056f90610f0c565b80601f016020809104026020016040519081016040528092919081815260200182805461059b90610f0c565b80156105e85780601f106105bd576101008083540402835291602001916105e8565b820191906000526020600020905b8154815290600101906020018083116105cb57829003601f168201915b50505050508152602001600282015481525050815260200190600101906104e6565b50505050905090565b60006106566040518060400160405280601681526020017f5765206861766520256420746f74616c20676d2773210000000000000000000081525060005461070f565b600054905090565b60036020528060005260406000206000915090505481565b61070c8160405160240161068a9190610c44565b6040516020818303038152906040527f41304fac000000000000000000000000000000000000000000000000000000007bffffffffffffffffffffffffffffffffffffffffffffffffffffffff19166020820180517bffffffffffffffffffffffffffffffffffffffffffffffffffffffff8381831617835250505050610847565b50565b6107a78282604051602401610725929190610c96565b6040516020818303038152906040527f9710a9d0000000000000000000000000000000000000000000000000000000007bffffffffffffffffffffffffffffffffffffffffffffffffffffffff19166020820180517bffffffffffffffffffffffffffffffffffffffffffffffffffffffff8381831617835250505050610847565b5050565b61084382826040516024016107c1929190610c66565b6040516020818303038152906040527f319af333000000000000000000000000000000000000000000000000000000007bffffffffffffffffffffffffffffffffffffffffffffffffffffffff19166020820180517bffffffffffffffffffffffffffffffffffffffffffffffffffffffff8381831617835250505050610847565b5050565b60008151905060006a636f6e736f6c652e6c6f679050602083016000808483855afa5050505050565b82805461087c90610f0c565b90600052602060002090601f01602090048101928261089e57600085556108e5565b82601f106108b757805160ff19168380011785556108e5565b828001600101855582156108e5579182015b828111156108e45782518255916020019190600101906108c9565b5b5090506108f291906108f6565b5090565b5b8082111561090f5760008160009055506001016108f7565b5090565b600061092661092184610d96565b610d71565b90508281526020810184848401111561093e57600080fd5b610949848285610eca565b509392505050565b60008135905061096081611180565b92915050565b600082601f83011261097757600080fd5b8135610987848260208601610913565b91505092915050565b6000602082840312156109a257600080fd5b60006109b084828501610951565b91505092915050565b6000602082840312156109cb57600080fd5b600082013567ffffffffffffffff8111156109e557600080fd5b6109f184828501610966565b91505092915050565b6000610a068383610b9f565b905092915050565b610a1781610e8e565b82525050565b610a2681610e8e565b82525050565b6000610a3782610dd7565b610a418185610dfa565b935083602082028501610a5385610dc7565b8060005b85811015610a8f5784840389528151610a7085826109fa565b9450610a7b83610ded565b925060208a01995050600181019050610a57565b50829750879550505050505092915050565b6000610aac82610de2565b610ab68185610e16565b9350610ac6818560208601610ed9565b610acf816110a5565b840191505092915050565b6000610ae582610de2565b610aef8185610e27565b9350610aff818560208601610ed9565b610b08816110a5565b840191505092915050565b6000610b20603483610e27565b9150610b2b826110b6565b604082019050919050565b6000610b43602783610e27565b9150610b4e82611105565b604082019050919050565b6000610b66601883610e27565b9150610b7182611154565b602082019050919050565b6000610b89600083610e0b565b9150610b948261117d565b600082019050919050565b6000606083016000830151610bb76000860182610a0e565b5060208301518482036020860152610bcf8282610aa1565b9150506040830151610be46040860182610bef565b508091505092915050565b610bf881610ec0565b82525050565b610c0781610ec0565b82525050565b6000610c1882610b7c565b9150819050919050565b60006020820190508181036000830152610c3c8184610a2c565b905092915050565b60006020820190508181036000830152610c5e8184610ada565b905092915050565b60006040820190508181036000830152610c808185610ada565b9050610c8f6020830184610a1d565b9392505050565b60006040820190508181036000830152610cb08185610ada565b9050610cbf6020830184610bfe565b9392505050565b60006020820190508181036000830152610cdf81610b13565b9050919050565b60006020820190508181036000830152610cff81610b36565b9050919050565b60006020820190508181036000830152610d1f81610b59565b9050919050565b6000602082019050610d3b6000830184610bfe565b92915050565b6000604082019050610d566000830185610bfe565b8181036020830152610d688184610ada565b90509392505050565b6000610d7b610d8c565b9050610d878282610f3e565b919050565b6000604051905090565b600067ffffffffffffffff821115610db157610db0611076565b5b610dba826110a5565b9050602081019050919050565b6000819050602082019050919050565b600081519050919050565b600081519050919050565b6000602082019050919050565b600082825260208201905092915050565b600081905092915050565b600082825260208201905092915050565b600082825260208201905092915050565b6000610e4382610ec0565b9150610e4e83610ec0565b9250827fffffffffffffffffffffffffffffffffffffffffffffffffffffffffffffffff03821115610e8357610e82610fe9565b5b828201905092915050565b6000610e9982610ea0565b9050919050565b600073ffffffffffffffffffffffffffffffffffffffff82169050919050565b6000819050919050565b82818337600083830152505050565b60005b83811015610ef7578082015181840152602081019050610edc565b83811115610f06576000848401525b50505050565b60006002820490506001821680610f2457607f821691505b60208210811415610f3857610f37611047565b5b50919050565b610f47826110a5565b810181811067ffffffffffffffff82111715610f6657610f65611076565b5b80604052505050565b6000610f7a82610ec0565b91507fffffffffffffffffffffffffffffffffffffffffffffffffffffffffffffffff821415610fad57610fac610fe9565b5b600182019050919050565b6000610fc382610ec0565b9150610fce83610ec0565b925082610fde57610fdd611018565b5b828206905092915050565b7f4e487b7100000000000000000000000000000000000000000000000000000000600052601160045260246000fd5b7f4e487b7100000000000000000000000000000000000000000000000000000000600052601260045260246000fd5b7f4e487b7100000000000000000000000000000000000000000000000000000000600052602260045260246000fd5b7f4e487b7100000000000000000000000000000000000000000000000000000000600052604160045260246000fd5b6000601f19601f8301169050919050565b7f547279696e6720746f207769746864726177206d6f7265206d6f6e657920746860008201527f616e2074686520636f6e7472616374206861732e000000000000000000000000602082015250565b7f4661696c656420746f207769746864726177206d6f6e65792066726f6d20636f60008201527f6e74726163742e00000000000000000000000000000000000000000000000000602082015250565b7f506c656173652077616974206174206c656173742031356d0000000000000000600082015250565b50565b61118981610e8e565b811461119457600080fd5b5056fea2646970667358221220e3cff7f0651c0a51881abb1a8b60bdda0ebe0856aa9d1167d70682a2ae7ac28664736f6c63430008040033",
  "linkReferences": {},
  "deployedLinkReferences": {}
}