{
  "_format": "hh-sol-artifact-1",
  "contractName": "WavePortal",
  "sourceName": "contracts/WavePortal.sol",
  "abi": [
    {
      "inputs": [],
      "stateMutability": "payable",
      "type": "constructor"
    },
    {
      "anonymous": false,
      "inputs": [
        {
          "indexed": true,
          "internalType": "address",
          "name": "from",
          "type": "address"
        },
        {
          "indexed": false,
          "internalType": "uint256",
          "name": "timestamp",
          "type": "uint256"
        },
        {
          "indexed": false,
          "internalType": "string",
          "name": "message",
          "type": "string"
        }
      ],
      "name": "NewWave",
      "type": "event"
    },
    {
      "inputs": [],
      "name": "getAllWaveMsgs",
      "outputs": [
        {
          "components": [
            {
              "internalType": "address",
              "name": "waver",
              "type": "address"
            },
            {
              "internalType": "string",
              "name": "message",
              "type": "string"
            },
            {
              "internalType": "uint256",
              "name": "timestamp",
              "type": "uint256"
            }
          ],
          "internalType": "struct WavePortal.Wave[]",
          "name": "",
          "type": "tuple[]"
        }
      ],
      "stateMutability": "view",
      "type": "function"
    },
    {
      "inputs": [],
      "name": "getTotalWaves",
      "outputs": [
        {
          "internalType": "uint256",
          "name": "",
          "type": "uint256"
        }
      ],
      "stateMutability": "view",
      "type": "function"
    },
    {
      "inputs": [],
      "name": "totalWaves",
      "outputs": [
        {
          "internalType": "uint256",
          "name": "",
          "type": "uint256"
        }
      ],
      "stateMutability": "view",
      "type": "function"
    },
    {
      "inputs": [
        {
          "internalType": "string",
          "name": "_message",
          "type": "string"
        }
      ],
      "name": "wave",
      "outputs": [],
      "stateMutability": "nonpayable",
      "type": "function"
    }
  ],
  "bytecode": "0x60806040526200004f6040518060400160405280601581526020017f676d204275696c6473706163652e2e20576176652100000000000000000000008152506200005560201b620004da1760201c565b620001e9565b620000f5816040516024016200006c919062000162565b6040516020818303038152906040527f41304fac000000000000000000000000000000000000000000000000000000007bffffffffffffffffffffffffffffffffffffffffffffffffffffffff19166020820180517bffffffffffffffffffffffffffffffffffffffffffffffffffffffff8381831617835250505050620000f860201b60201c565b50565b60008151905060006a636f6e736f6c652e6c6f679050602083016000808483855afa5050505050565b60006200012e8262000186565b6200013a818562000191565b93506200014c818560208601620001a2565b6200015781620001d8565b840191505092915050565b600060208201905081810360008301526200017e818462000121565b905092915050565b600081519050919050565b600082825260208201905092915050565b60005b83811015620001c2578082015181840152602081019050620001a5565b83811115620001d2576000848401525b50505050565b6000601f19601f8301169050919050565b610eba80620001f96000396000f3fe608060405234801561001057600080fd5b506004361061004c5760003560e01c8063291bcab314610051578063449d46c01461006f5780638567b5041461008b5780639a2cdc08146100a9575b600080fd5b6100596100c7565b6040516100669190610b09565b60405180910390f35b610089600480360381019061008491906107df565b6100cd565b005b61009361033e565b6040516100a09190610a25565b60405180910390f35b6100b161048f565b6040516100be9190610b09565b60405180910390f35b60005481565b6000808154809291906100df90610cfc565b91905055506101236040518060400160405280600c81526020017f25732c20676d205761766521000000000000000000000000000000000000000081525033610573565b600160405180606001604052803373ffffffffffffffffffffffffffffffffffffffff16815260200183815260200142815250908060018154018082558091505060019003906000526020600020906003020160009091909190915060008201518160000160006101000a81548173ffffffffffffffffffffffffffffffffffffffff021916908373ffffffffffffffffffffffffffffffffffffffff16021790555060208201518160010190805190602001906101e29291906106d4565b506040820151816002015550503373ffffffffffffffffffffffffffffffffffffffff167f5f7e16dc676677766a70e9c5628aa6c54ddb8b6e5188e2ae1e1f17f1ffbea7164283604051610237929190610b24565b60405180910390a26000655af3107a400090504781111561028d576040517f08c379a000000000000000000000000000000000000000000000000000000000815260040161028490610ac9565b60405180910390fd5b60003373ffffffffffffffffffffffffffffffffffffffff16826040516102b390610a10565b60006040518083038185875af1925050503d80600081146102f0576040519150601f19603f3d011682016040523d82523d6000602084013e6102f5565b606091505b5050905080610339576040517f08c379a000000000000000000000000000000000000000000000000000000000815260040161033090610ae9565b60405180910390fd5b505050565b60606001805480602002602001604051908101604052809291908181526020016000905b8282101561048657838290600052602060002090600302016040518060600160405290816000820160009054906101000a900473ffffffffffffffffffffffffffffffffffffffff1673ffffffffffffffffffffffffffffffffffffffff1673ffffffffffffffffffffffffffffffffffffffff1681526020016001820180546103eb90610c99565b80601f016020809104026020016040519081016040528092919081815260200182805461041790610c99565b80156104645780601f1061043957610100808354040283529160200191610464565b820191906000526020600020905b81548152906001019060200180831161044757829003601f168201915b5050505050815260200160028201548152505081526020019060010190610362565b50505050905090565b60006104d26040518060400160405280601681526020017f5765206861766520256420746f74616c20676d2773210000000000000000000081525060005461060f565b600054905090565b610570816040516024016104ee9190610a47565b6040516020818303038152906040527f41304fac000000000000000000000000000000000000000000000000000000007bffffffffffffffffffffffffffffffffffffffffffffffffffffffff19166020820180517bffffffffffffffffffffffffffffffffffffffffffffffffffffffff83818316178352505050506106ab565b50565b61060b8282604051602401610589929190610a69565b6040516020818303038152906040527f319af333000000000000000000000000000000000000000000000000000000007bffffffffffffffffffffffffffffffffffffffffffffffffffffffff19166020820180517bffffffffffffffffffffffffffffffffffffffffffffffffffffffff83818316178352505050506106ab565b5050565b6106a78282604051602401610625929190610a99565b6040516020818303038152906040527f9710a9d0000000000000000000000000000000000000000000000000000000007bffffffffffffffffffffffffffffffffffffffffffffffffffffffff19166020820180517bffffffffffffffffffffffffffffffffffffffffffffffffffffffff83818316178352505050506106ab565b5050565b60008151905060006a636f6e736f6c652e6c6f679050602083016000808483855afa5050505050565b8280546106e090610c99565b90600052602060002090601f0160209004810192826107025760008555610749565b82601f1061071b57805160ff1916838001178555610749565b82800160010185558215610749579182015b8281111561074857825182559160200191906001019061072d565b5b509050610756919061075a565b5090565b5b8082111561077357600081600090555060010161075b565b5090565b600061078a61078584610b79565b610b54565b9050828152602081018484840111156107a257600080fd5b6107ad848285610c57565b509392505050565b600082601f8301126107c657600080fd5b81356107d6848260208601610777565b91505092915050565b6000602082840312156107f157600080fd5b600082013567ffffffffffffffff81111561080b57600080fd5b610817848285016107b5565b91505092915050565b600061082c83836109a2565b905092915050565b61083d81610c1b565b82525050565b61084c81610c1b565b82525050565b600061085d82610bba565b6108678185610bdd565b93508360208202850161087985610baa565b8060005b858110156108b557848403895281516108968582610820565b94506108a183610bd0565b925060208a0199505060018101905061087d565b50829750879550505050505092915050565b60006108d282610bc5565b6108dc8185610bf9565b93506108ec818560208601610c66565b6108f581610dd2565b840191505092915050565b600061090b82610bc5565b6109158185610c0a565b9350610925818560208601610c66565b61092e81610dd2565b840191505092915050565b6000610946603483610c0a565b915061095182610de3565b604082019050919050565b6000610969602783610c0a565b915061097482610e32565b604082019050919050565b600061098c600083610bee565b915061099782610e81565b600082019050919050565b60006060830160008301516109ba6000860182610834565b50602083015184820360208601526109d282826108c7565b91505060408301516109e760408601826109f2565b508091505092915050565b6109fb81610c4d565b82525050565b610a0a81610c4d565b82525050565b6000610a1b8261097f565b9150819050919050565b60006020820190508181036000830152610a3f8184610852565b905092915050565b60006020820190508181036000830152610a618184610900565b905092915050565b60006040820190508181036000830152610a838185610900565b9050610a926020830184610843565b9392505050565b60006040820190508181036000830152610ab38185610900565b9050610ac26020830184610a01565b9392505050565b60006020820190508181036000830152610ae281610939565b9050919050565b60006020820190508181036000830152610b028161095c565b9050919050565b6000602082019050610b1e6000830184610a01565b92915050565b6000604082019050610b396000830185610a01565b8181036020830152610b4b8184610900565b90509392505050565b6000610b5e610b6f565b9050610b6a8282610ccb565b919050565b6000604051905090565b600067ffffffffffffffff821115610b9457610b93610da3565b5b610b9d82610dd2565b9050602081019050919050565b6000819050602082019050919050565b600081519050919050565b600081519050919050565b6000602082019050919050565b600082825260208201905092915050565b600081905092915050565b600082825260208201905092915050565b600082825260208201905092915050565b6000610c2682610c2d565b9050919050565b600073ffffffffffffffffffffffffffffffffffffffff82169050919050565b6000819050919050565b82818337600083830152505050565b60005b83811015610c84578082015181840152602081019050610c69565b83811115610c93576000848401525b50505050565b60006002820490506001821680610cb157607f821691505b60208210811415610cc557610cc4610d74565b5b50919050565b610cd482610dd2565b810181811067ffffffffffffffff82111715610cf357610cf2610da3565b5b80604052505050565b6000610d0782610c4d565b91507fffffffffffffffffffffffffffffffffffffffffffffffffffffffffffffffff821415610d3a57610d39610d45565b5b600182019050919050565b7f4e487b7100000000000000000000000000000000000000000000000000000000600052601160045260246000fd5b7f4e487b7100000000000000000000000000000000000000000000000000000000600052602260045260246000fd5b7f4e487b7100000000000000000000000000000000000000000000000000000000600052604160045260246000fd5b6000601f19601f8301169050919050565b7f547279696e6720746f207769746864726177206d6f7265206d6f6e657920746860008201527f616e2074686520636f6e7472616374206861732e000000000000000000000000602082015250565b7f4661696c656420746f207769746864726177206d6f6e65792066726f6d20636f60008201527f6e74726163742e00000000000000000000000000000000000000000000000000602082015250565b5056fea2646970667358221220e4fd70244b2f5ac9f202854c52de82ad0bdaa03234e2511f57325fd061ec157464736f6c63430008040033",
  "linkReferences": {},
  "deployedLinkReferences": {}
}