{
  "_format": "hh-sol-artifact-1",
  "contractName": "WavePortal",
  "sourceName": "contracts/WavePortal.sol",
  "abi": [
    {
      "inputs": [],
      "stateMutability": "nonpayable",
      "type": "constructor"
    },
    {
      "anonymous": false,
      "inputs": [
        {
          "indexed": true,
          "internalType": "address",
          "name": "from",
          "type": "address"
        },
        {
          "indexed": false,
          "internalType": "uint256",
          "name": "timestamp",
          "type": "uint256"
        },
        {
          "indexed": false,
          "internalType": "string",
          "name": "message",
          "type": "string"
        }
      ],
      "name": "NewWave",
      "type": "event"
    },
    {
      "inputs": [],
      "name": "getAllWaveMsgs",
      "outputs": [
        {
          "components": [
            {
              "internalType": "address",
              "name": "waver",
              "type": "address"
            },
            {
              "internalType": "string",
              "name": "message",
              "type": "string"
            },
            {
              "internalType": "uint256",
              "name": "timestamp",
              "type": "uint256"
            }
          ],
          "internalType": "struct WavePortal.Wave[]",
          "name": "",
          "type": "tuple[]"
        }
      ],
      "stateMutability": "view",
      "type": "function"
    },
    {
      "inputs": [],
      "name": "getTotalWaves",
      "outputs": [
        {
          "internalType": "uint256",
          "name": "",
          "type": "uint256"
        }
      ],
      "stateMutability": "view",
      "type": "function"
    },
    {
      "inputs": [],
      "name": "totalWaves",
      "outputs": [
        {
          "internalType": "uint256",
          "name": "",
          "type": "uint256"
        }
      ],
      "stateMutability": "view",
      "type": "function"
    },
    {
      "inputs": [
        {
          "internalType": "string",
          "name": "_message",
          "type": "string"
        }
      ],
      "name": "wave",
      "outputs": [],
      "stateMutability": "nonpayable",
      "type": "function"
    }
  ],
  "bytecode": "0x60806040523480156200001157600080fd5b506200005d6040518060400160405280601581526020017f676d204275696c6473706163652e2e20576176652100000000000000000000008152506200006360201b620003de1760201c565b620001f7565b62000103816040516024016200007a919062000170565b6040516020818303038152906040527f41304fac000000000000000000000000000000000000000000000000000000007bffffffffffffffffffffffffffffffffffffffffffffffffffffffff19166020820180517bffffffffffffffffffffffffffffffffffffffffffffffffffffffff83818316178352505050506200010660201b60201c565b50565b60008151905060006a636f6e736f6c652e6c6f679050602083016000808483855afa5050505050565b60006200013c8262000194565b6200014881856200019f565b93506200015a818560208601620001b0565b6200016581620001e6565b840191505092915050565b600060208201905081810360008301526200018c81846200012f565b905092915050565b600081519050919050565b600082825260208201905092915050565b60005b83811015620001d0578082015181840152602081019050620001b3565b83811115620001e0576000848401525b50505050565b6000601f19601f8301169050919050565b610c5480620002076000396000f3fe608060405234801561001057600080fd5b506004361061004c5760003560e01c8063291bcab314610051578063449d46c01461006f5780638567b5041461008b5780639a2cdc08146100a9575b600080fd5b6100596100c7565b604051610066919061094f565b60405180910390f35b610089600480360381019061008491906106e3565b6100cd565b005b610093610242565b6040516100a091906108ab565b60405180910390f35b6100b1610393565b6040516100be919061094f565b60405180910390f35b60005481565b6000808154809291906100df90610b37565b91905055506101236040518060400160405280600c81526020017f25732c20676d205761766521000000000000000000000000000000000000000081525033610477565b600160405180606001604052803373ffffffffffffffffffffffffffffffffffffffff16815260200183815260200142815250908060018154018082558091505060019003906000526020600020906003020160009091909190915060008201518160000160006101000a81548173ffffffffffffffffffffffffffffffffffffffff021916908373ffffffffffffffffffffffffffffffffffffffff16021790555060208201518160010190805190602001906101e29291906105d8565b506040820151816002015550503373ffffffffffffffffffffffffffffffffffffffff167f5f7e16dc676677766a70e9c5628aa6c54ddb8b6e5188e2ae1e1f17f1ffbea716428360405161023792919061096a565b60405180910390a250565b60606001805480602002602001604051908101604052809291908181526020016000905b8282101561038a57838290600052602060002090600302016040518060600160405290816000820160009054906101000a900473ffffffffffffffffffffffffffffffffffffffff1673ffffffffffffffffffffffffffffffffffffffff1673ffffffffffffffffffffffffffffffffffffffff1681526020016001820180546102ef90610ad4565b80601f016020809104026020016040519081016040528092919081815260200182805461031b90610ad4565b80156103685780601f1061033d57610100808354040283529160200191610368565b820191906000526020600020905b81548152906001019060200180831161034b57829003601f168201915b5050505050815260200160028201548152505081526020019060010190610266565b50505050905090565b60006103d66040518060400160405280601681526020017f5765206861766520256420746f74616c20676d27732100000000000000000000815250600054610513565b600054905090565b610474816040516024016103f291906108cd565b6040516020818303038152906040527f41304fac000000000000000000000000000000000000000000000000000000007bffffffffffffffffffffffffffffffffffffffffffffffffffffffff19166020820180517bffffffffffffffffffffffffffffffffffffffffffffffffffffffff83818316178352505050506105af565b50565b61050f828260405160240161048d9291906108ef565b6040516020818303038152906040527f319af333000000000000000000000000000000000000000000000000000000007bffffffffffffffffffffffffffffffffffffffffffffffffffffffff19166020820180517bffffffffffffffffffffffffffffffffffffffffffffffffffffffff83818316178352505050506105af565b5050565b6105ab828260405160240161052992919061091f565b6040516020818303038152906040527f9710a9d0000000000000000000000000000000000000000000000000000000007bffffffffffffffffffffffffffffffffffffffffffffffffffffffff19166020820180517bffffffffffffffffffffffffffffffffffffffffffffffffffffffff83818316178352505050506105af565b5050565b60008151905060006a636f6e736f6c652e6c6f679050602083016000808483855afa5050505050565b8280546105e490610ad4565b90600052602060002090601f016020900481019282610606576000855561064d565b82601f1061061f57805160ff191683800117855561064d565b8280016001018555821561064d579182015b8281111561064c578251825591602001919060010190610631565b5b50905061065a919061065e565b5090565b5b8082111561067757600081600090555060010161065f565b5090565b600061068e610689846109bf565b61099a565b9050828152602081018484840111156106a657600080fd5b6106b1848285610a92565b509392505050565b600082601f8301126106ca57600080fd5b81356106da84826020860161067b565b91505092915050565b6000602082840312156106f557600080fd5b600082013567ffffffffffffffff81111561070f57600080fd5b61071b848285016106b9565b91505092915050565b6000610730838361083d565b905092915050565b61074181610a56565b82525050565b61075081610a56565b82525050565b600061076182610a00565b61076b8185610a23565b93508360208202850161077d856109f0565b8060005b858110156107b9578484038952815161079a8582610724565b94506107a583610a16565b925060208a01995050600181019050610781565b50829750879550505050505092915050565b60006107d682610a0b565b6107e08185610a34565b93506107f0818560208601610aa1565b6107f981610c0d565b840191505092915050565b600061080f82610a0b565b6108198185610a45565b9350610829818560208601610aa1565b61083281610c0d565b840191505092915050565b60006060830160008301516108556000860182610738565b506020830151848203602086015261086d82826107cb565b9150506040830151610882604086018261088d565b508091505092915050565b61089681610a88565b82525050565b6108a581610a88565b82525050565b600060208201905081810360008301526108c58184610756565b905092915050565b600060208201905081810360008301526108e78184610804565b905092915050565b600060408201905081810360008301526109098185610804565b90506109186020830184610747565b9392505050565b600060408201905081810360008301526109398185610804565b9050610948602083018461089c565b9392505050565b6000602082019050610964600083018461089c565b92915050565b600060408201905061097f600083018561089c565b81810360208301526109918184610804565b90509392505050565b60006109a46109b5565b90506109b08282610b06565b919050565b6000604051905090565b600067ffffffffffffffff8211156109da576109d9610bde565b5b6109e382610c0d565b9050602081019050919050565b6000819050602082019050919050565b600081519050919050565b600081519050919050565b6000602082019050919050565b600082825260208201905092915050565b600082825260208201905092915050565b600082825260208201905092915050565b6000610a6182610a68565b9050919050565b600073ffffffffffffffffffffffffffffffffffffffff82169050919050565b6000819050919050565b82818337600083830152505050565b60005b83811015610abf578082015181840152602081019050610aa4565b83811115610ace576000848401525b50505050565b60006002820490506001821680610aec57607f821691505b60208210811415610b0057610aff610baf565b5b50919050565b610b0f82610c0d565b810181811067ffffffffffffffff82111715610b2e57610b2d610bde565b5b80604052505050565b6000610b4282610a88565b91507fffffffffffffffffffffffffffffffffffffffffffffffffffffffffffffffff821415610b7557610b74610b80565b5b600182019050919050565b7f4e487b7100000000000000000000000000000000000000000000000000000000600052601160045260246000fd5b7f4e487b7100000000000000000000000000000000000000000000000000000000600052602260045260246000fd5b7f4e487b7100000000000000000000000000000000000000000000000000000000600052604160045260246000fd5b6000601f19601f830116905091905056fea264697066735822122037794fc7c866815426666c54e3924b02493a4a0564d5a85b6b09570db88eb2a264736f6c63430008040033",
  "linkReferences": {},
  "deployedLinkReferences": {}
}